{
  "contractName": "DataStorage",
  "abi": [
    {
      "anonymous": false,
      "inputs": [
        {
          "indexed": true,
          "internalType": "uint256",
          "name": "id",
          "type": "uint256"
        },
        {
          "indexed": true,
          "internalType": "address",
          "name": "user",
          "type": "address"
        }
      ],
      "name": "DataAccessed",
      "type": "event"
    },
    {
      "anonymous": false,
      "inputs": [
        {
          "indexed": true,
          "internalType": "uint256",
          "name": "id",
          "type": "uint256"
        },
        {
          "indexed": true,
          "internalType": "address",
          "name": "recipient",
          "type": "address"
        }
      ],
      "name": "DataRevoked",
      "type": "event"
    },
    {
      "anonymous": false,
      "inputs": [
        {
          "indexed": true,
          "internalType": "uint256",
          "name": "id",
          "type": "uint256"
        },
        {
          "indexed": true,
          "internalType": "address",
          "name": "recipient",
          "type": "address"
        }
      ],
      "name": "DataShared",
      "type": "event"
    },
    {
      "anonymous": false,
      "inputs": [
        {
          "indexed": true,
          "internalType": "uint256",
          "name": "id",
          "type": "uint256"
        },
        {
          "indexed": false,
          "internalType": "string",
          "name": "name",
          "type": "string"
        },
        {
          "indexed": false,
          "internalType": "uint256",
          "name": "timestamp",
          "type": "uint256"
        },
        {
          "indexed": false,
          "internalType": "address",
          "name": "owner",
          "type": "address"
        }
      ],
      "name": "DataStored",
      "type": "event"
    },
    {
      "anonymous": false,
      "inputs": [
        {
          "indexed": true,
          "internalType": "bytes32",
          "name": "role",
          "type": "bytes32"
        },
        {
          "indexed": true,
          "internalType": "bytes32",
          "name": "previousAdminRole",
          "type": "bytes32"
        },
        {
          "indexed": true,
          "internalType": "bytes32",
          "name": "newAdminRole",
          "type": "bytes32"
        }
      ],
      "name": "RoleAdminChanged",
      "type": "event"
    },
    {
      "anonymous": false,
      "inputs": [
        {
          "indexed": true,
          "internalType": "bytes32",
          "name": "role",
          "type": "bytes32"
        },
        {
          "indexed": true,
          "internalType": "address",
          "name": "account",
          "type": "address"
        },
        {
          "indexed": true,
          "internalType": "address",
          "name": "sender",
          "type": "address"
        }
      ],
      "name": "RoleGranted",
      "type": "event"
    },
    {
      "anonymous": false,
      "inputs": [
        {
          "indexed": true,
          "internalType": "bytes32",
          "name": "role",
          "type": "bytes32"
        },
        {
          "indexed": true,
          "internalType": "address",
          "name": "account",
          "type": "address"
        },
        {
          "indexed": true,
          "internalType": "address",
          "name": "sender",
          "type": "address"
        }
      ],
      "name": "RoleRevoked",
      "type": "event"
    },
    {
      "inputs": [],
      "name": "DEFAULT_ADMIN_ROLE",
      "outputs": [
        {
          "internalType": "bytes32",
          "name": "",
          "type": "bytes32"
        }
      ],
      "stateMutability": "view",
      "type": "function",
      "constant": true
    },
    {
      "inputs": [
        {
          "internalType": "bytes32",
          "name": "role",
          "type": "bytes32"
        }
      ],
      "name": "getRoleAdmin",
      "outputs": [
        {
          "internalType": "bytes32",
          "name": "",
          "type": "bytes32"
        }
      ],
      "stateMutability": "view",
      "type": "function",
      "constant": true
    },
    {
      "inputs": [
        {
          "internalType": "bytes32",
          "name": "role",
          "type": "bytes32"
        },
        {
          "internalType": "address",
          "name": "account",
          "type": "address"
        }
      ],
      "name": "grantRole",
      "outputs": [],
      "stateMutability": "nonpayable",
      "type": "function"
    },
    {
      "inputs": [
        {
          "internalType": "bytes32",
          "name": "role",
          "type": "bytes32"
        },
        {
          "internalType": "address",
          "name": "account",
          "type": "address"
        }
      ],
      "name": "hasRole",
      "outputs": [
        {
          "internalType": "bool",
          "name": "",
          "type": "bool"
        }
      ],
      "stateMutability": "view",
      "type": "function",
      "constant": true
    },
    {
      "inputs": [
        {
          "internalType": "bytes32",
          "name": "role",
          "type": "bytes32"
        },
        {
          "internalType": "address",
          "name": "account",
          "type": "address"
        }
      ],
      "name": "renounceRole",
      "outputs": [],
      "stateMutability": "nonpayable",
      "type": "function"
    },
    {
      "inputs": [
        {
          "internalType": "bytes32",
          "name": "role",
          "type": "bytes32"
        },
        {
          "internalType": "address",
          "name": "account",
          "type": "address"
        }
      ],
      "name": "revokeRole",
      "outputs": [],
      "stateMutability": "nonpayable",
      "type": "function"
    },
    {
      "inputs": [
        {
          "internalType": "bytes4",
          "name": "interfaceId",
          "type": "bytes4"
        }
      ],
      "name": "supportsInterface",
      "outputs": [
        {
          "internalType": "bool",
          "name": "",
          "type": "bool"
        }
      ],
      "stateMutability": "view",
      "type": "function",
      "constant": true
    },
    {
      "inputs": [
        {
          "internalType": "string",
          "name": "_name",
          "type": "string"
        },
        {
          "internalType": "string",
          "name": "_contentHash",
          "type": "string"
        }
      ],
      "name": "storeData",
      "outputs": [],
      "stateMutability": "nonpayable",
      "type": "function"
    },
    {
      "inputs": [
        {
          "internalType": "uint256",
          "name": "_id",
          "type": "uint256"
        },
        {
          "internalType": "address",
          "name": "_recipient",
          "type": "address"
        }
      ],
      "name": "shareData",
      "outputs": [],
      "stateMutability": "nonpayable",
      "type": "function"
    },
    {
      "inputs": [
        {
          "internalType": "uint256",
          "name": "_id",
          "type": "uint256"
        },
        {
          "internalType": "address",
          "name": "_recipient",
          "type": "address"
        }
      ],
      "name": "revokeDataAccess",
      "outputs": [],
      "stateMutability": "nonpayable",
      "type": "function"
    },
    {
      "inputs": [
        {
          "internalType": "uint256",
          "name": "_id",
          "type": "uint256"
        }
      ],
      "name": "accessData",
      "outputs": [],
      "stateMutability": "nonpayable",
      "type": "function"
    },
    {
      "inputs": [
        {
          "internalType": "uint256",
          "name": "_id",
          "type": "uint256"
        }
      ],
      "name": "getData",
      "outputs": [
        {
          "internalType": "string",
          "name": "",
          "type": "string"
        },
        {
          "internalType": "uint256",
          "name": "",
          "type": "uint256"
        },
        {
          "internalType": "address",
          "name": "",
          "type": "address"
        }
      ],
      "stateMutability": "view",
      "type": "function",
      "constant": true
    },
    {
      "inputs": [
        {
          "internalType": "uint256",
          "name": "_id",
          "type": "uint256"
        }
      ],
      "name": "getContentHash",
      "outputs": [
        {
          "internalType": "string",
          "name": "",
          "type": "string"
        }
      ],
      "stateMutability": "view",
      "type": "function",
      "constant": true
    }
  ],
  "bytecode": "0x608060405234801561001057600080fd5b5061224e806100206000396000f3fe608060405234801561001057600080fd5b50600436106100cf5760003560e01c80634ece5b4c1161008c57806391d148541161006657806391d148541461020e578063a217fddf1461023e578063d547741f1461025c578063ffbdc8cb14610278576100cf565b80634ece5b4c146101ba57806353177c9f146101d657806381aad0d3146101f2576100cf565b80630178fe3f146100d457806301ffc9a714610106578063248a9ca3146101365780632f2ff15d1461016657806330e240831461018257806336568abe1461019e575b600080fd5b6100ee60048036038101906100e99190611834565b6102a8565b6040516100fd93929190611d0f565b60405180910390f35b610120600480360381019061011b919061179f565b6103dd565b60405161012d9190611cb7565b60405180910390f35b610150600480360381019061014b919061173a565b610457565b60405161015d9190611cd2565b60405180910390f35b610180600480360381019061017b9190611763565b610476565b005b61019c6004803603810190610197919061185d565b610497565b005b6101b860048036038101906101b39190611763565b610779565b005b6101d460048036038101906101cf91906117c8565b6107fc565b005b6101f060048036038101906101eb9190611834565b6108ee565b005b61020c6004803603810190610207919061185d565b6109d4565b005b61022860048036038101906102239190611763565b610e09565b6040516102359190611cb7565b60405180910390f35b610246610e73565b6040516102539190611cd2565b60405180910390f35b61027660048036038101906102719190611763565b610e7a565b005b610292600480360381019061028d9190611834565b610e9b565b60405161029f9190611ced565b60405180910390f35b60606000806000841180156102bf57506003548411155b6102fe576040517f08c379a00000000000000000000000000000000000000000000000000000000081526004016102f590611d6d565b60405180910390fd5b60006001600086815260200190815260200160002090508060000181600201548260030160009054906101000a900473ffffffffffffffffffffffffffffffffffffffff1682805461034f906120a3565b80601f016020809104026020016040519081016040528092919081815260200182805461037b906120a3565b80156103c85780601f1061039d576101008083540402835291602001916103c8565b820191906000526020600020905b8154815290600101906020018083116103ab57829003601f168201915b50505050509250935093509350509193909250565b60007f7965db0b000000000000000000000000000000000000000000000000000000007bffffffffffffffffffffffffffffffffffffffffffffffffffffffff1916827bffffffffffffffffffffffffffffffffffffffffffffffffffffffff19161480610450575061044f82610fe8565b5b9050919050565b6000806000838152602001908152602001600020600101549050919050565b61047f82610457565b61048881611052565b6104928383611066565b505050565b816001600082815260200190815260200160002060030160009054906101000a900473ffffffffffffffffffffffffffffffffffffffff1673ffffffffffffffffffffffffffffffffffffffff163373ffffffffffffffffffffffffffffffffffffffff161461053c576040517f08c379a000000000000000000000000000000000000000000000000000000000815260040161053390611d8d565b60405180910390fd5b600073ffffffffffffffffffffffffffffffffffffffff168273ffffffffffffffffffffffffffffffffffffffff1614156105ac576040517f08c379a00000000000000000000000000000000000000000000000000000000081526004016105a390611dcd565b60405180910390fd5b6002600084815260200190815260200160002060008373ffffffffffffffffffffffffffffffffffffffff1673ffffffffffffffffffffffffffffffffffffffff16815260200190815260200160002060009054906101000a900460ff161561064a576040517f08c379a000000000000000000000000000000000000000000000000000000000815260040161064190611dad565b60405180910390fd5b600060016000858152602001908152602001600020905080600401839080600181540180825580915050600190039060005260206000200160009091909190916101000a81548173ffffffffffffffffffffffffffffffffffffffff021916908373ffffffffffffffffffffffffffffffffffffffff16021790555060016002600086815260200190815260200160002060008573ffffffffffffffffffffffffffffffffffffffff1673ffffffffffffffffffffffffffffffffffffffff16815260200190815260200160002060006101000a81548160ff0219169083151502179055508273ffffffffffffffffffffffffffffffffffffffff16847f48068957e26b725a7d3d1ec012a0db2b5c9773b5615bffe52e8aaed0545935c160405160405180910390a350505050565b610781611146565b73ffffffffffffffffffffffffffffffffffffffff168173ffffffffffffffffffffffffffffffffffffffff16146107ee576040517f08c379a00000000000000000000000000000000000000000000000000000000081526004016107e590611e2d565b60405180910390fd5b6107f8828261114e565b5050565b6003600081548092919061080f906120d5565b919050555060006001600060035481526020019081526020016000209050828160000190805190602001906108459291906115db565b508181600101908051906020019061085e9291906115db565b50428160020181905550338160030160006101000a81548173ffffffffffffffffffffffffffffffffffffffff021916908373ffffffffffffffffffffffffffffffffffffffff1602179055506003547f7a9362a85974dd935afd73b3a81f6b73606a8250dc40151c3e850e4342285d2b8442336040516108e193929190611d0f565b60405180910390a2505050565b806002600082815260200190815260200160002060003373ffffffffffffffffffffffffffffffffffffffff1673ffffffffffffffffffffffffffffffffffffffff16815260200190815260200160002060009054906101000a900460ff1661098c576040517f08c379a000000000000000000000000000000000000000000000000000000000815260040161098390611e0d565b60405180910390fd5b3373ffffffffffffffffffffffffffffffffffffffff16827fcf84e03210e08757b9c44129a068417a6eee9fcecc0be71d94a86417b67999f060405160405180910390a35050565b816001600082815260200190815260200160002060030160009054906101000a900473ffffffffffffffffffffffffffffffffffffffff1673ffffffffffffffffffffffffffffffffffffffff163373ffffffffffffffffffffffffffffffffffffffff1614610a79576040517f08c379a0000000000000000000000000000000000000000000000000000000008152600401610a7090611d8d565b60405180910390fd5b6002600084815260200190815260200160002060008373ffffffffffffffffffffffffffffffffffffffff1673ffffffffffffffffffffffffffffffffffffffff16815260200190815260200160002060009054906101000a900460ff16610b16576040517f08c379a0000000000000000000000000000000000000000000000000000000008152600401610b0d90611ded565b60405180910390fd5b6000600160008581526020019081526020016000209050600081600401905060005b8180549050811015610d54578473ffffffffffffffffffffffffffffffffffffffff16828281548110610b94577f4e487b7100000000000000000000000000000000000000000000000000000000600052603260045260246000fd5b9060005260206000200160009054906101000a900473ffffffffffffffffffffffffffffffffffffffff1673ffffffffffffffffffffffffffffffffffffffff161415610d41578160018380549050610bed9190611f85565b81548110610c24577f4e487b7100000000000000000000000000000000000000000000000000000000600052603260045260246000fd5b9060005260206000200160009054906101000a900473ffffffffffffffffffffffffffffffffffffffff16828281548110610c88577f4e487b7100000000000000000000000000000000000000000000000000000000600052603260045260246000fd5b9060005260206000200160006101000a81548173ffffffffffffffffffffffffffffffffffffffff021916908373ffffffffffffffffffffffffffffffffffffffff16021790555081805480610d07577f4e487b7100000000000000000000000000000000000000000000000000000000600052603160045260246000fd5b6001900381819060005260206000200160006101000a81549073ffffffffffffffffffffffffffffffffffffffff02191690559055610d54565b8080610d4c906120d5565b915050610b38565b5060006002600087815260200190815260200160002060008673ffffffffffffffffffffffffffffffffffffffff1673ffffffffffffffffffffffffffffffffffffffff16815260200190815260200160002060006101000a81548160ff0219169083151502179055508373ffffffffffffffffffffffffffffffffffffffff16857f1ab14d3b5d4dc6b1ab40340511c6fe04291c1ef991440ea96636779ea9413e9260405160405180910390a35050505050565b600080600084815260200190815260200160002060000160008373ffffffffffffffffffffffffffffffffffffffff1673ffffffffffffffffffffffffffffffffffffffff16815260200190815260200160002060009054906101000a900460ff16905092915050565b6000801b81565b610e8382610457565b610e8c81611052565b610e96838361114e565b505050565b6060816002600082815260200190815260200160002060003373ffffffffffffffffffffffffffffffffffffffff1673ffffffffffffffffffffffffffffffffffffffff16815260200190815260200160002060009054906101000a900460ff16610f3b576040517f08c379a0000000000000000000000000000000000000000000000000000000008152600401610f3290611e0d565b60405180910390fd5b6000600160008581526020019081526020016000209050806001018054610f61906120a3565b80601f0160208091040260200160405190810160405280929190818152602001828054610f8d906120a3565b8015610fda5780601f10610faf57610100808354040283529160200191610fda565b820191906000526020600020905b815481529060010190602001808311610fbd57829003601f168201915b505050505092505050919050565b60007f01ffc9a7000000000000000000000000000000000000000000000000000000007bffffffffffffffffffffffffffffffffffffffffffffffffffffffff1916827bffffffffffffffffffffffffffffffffffffffffffffffffffffffff1916149050919050565b6110638161105e611146565b61122f565b50565b6110708282610e09565b61114257600160008084815260200190815260200160002060000160008373ffffffffffffffffffffffffffffffffffffffff1673ffffffffffffffffffffffffffffffffffffffff16815260200190815260200160002060006101000a81548160ff0219169083151502179055506110e7611146565b73ffffffffffffffffffffffffffffffffffffffff168173ffffffffffffffffffffffffffffffffffffffff16837f2f8788117e7eff1d82e926ec794901d17c78024a50270940304540a733656f0d60405160405180910390a45b5050565b600033905090565b6111588282610e09565b1561122b57600080600084815260200190815260200160002060000160008373ffffffffffffffffffffffffffffffffffffffff1673ffffffffffffffffffffffffffffffffffffffff16815260200190815260200160002060006101000a81548160ff0219169083151502179055506111d0611146565b73ffffffffffffffffffffffffffffffffffffffff168173ffffffffffffffffffffffffffffffffffffffff16837ff6391f5c32d9c69d2a47ea670b442974b53935d1edc7fd64eb21e047a839171b60405160405180910390a45b5050565b6112398282610e09565b6112b057611246816112b4565b6112548360001c60206112e1565b604051602001611265929190611c7d565b6040516020818303038152906040526040517f08c379a00000000000000000000000000000000000000000000000000000000081526004016112a79190611ced565b60405180910390fd5b5050565b60606112da8273ffffffffffffffffffffffffffffffffffffffff16601460ff166112e1565b9050919050565b6060600060028360026112f49190611f2b565b6112fe9190611ed5565b67ffffffffffffffff81111561133d577f4e487b7100000000000000000000000000000000000000000000000000000000600052604160045260246000fd5b6040519080825280601f01601f19166020018201604052801561136f5781602001600182028036833780820191505090505b5090507f3000000000000000000000000000000000000000000000000000000000000000816000815181106113cd577f4e487b7100000000000000000000000000000000000000000000000000000000600052603260045260246000fd5b60200101907effffffffffffffffffffffffffffffffffffffffffffffffffffffffffffff1916908160001a9053507f780000000000000000000000000000000000000000000000000000000000000081600181518110611457577f4e487b7100000000000000000000000000000000000000000000000000000000600052603260045260246000fd5b60200101907effffffffffffffffffffffffffffffffffffffffffffffffffffffffffffff1916908160001a905350600060018460026114979190611f2b565b6114a19190611ed5565b90505b600181111561158d577f3031323334353637383961626364656600000000000000000000000000000000600f861660108110611509577f4e487b7100000000000000000000000000000000000000000000000000000000600052603260045260246000fd5b1a60f81b828281518110611546577f4e487b7100000000000000000000000000000000000000000000000000000000600052603260045260246000fd5b60200101907effffffffffffffffffffffffffffffffffffffffffffffffffffffffffffff1916908160001a905350600485901c94508061158690612079565b90506114a4565b50600084146115d1576040517f08c379a00000000000000000000000000000000000000000000000000000000081526004016115c890611d4d565b60405180910390fd5b8091505092915050565b8280546115e7906120a3565b90600052602060002090601f0160209004810192826116095760008555611650565b82601f1061162257805160ff1916838001178555611650565b82800160010185558215611650579182015b8281111561164f578251825591602001919060010190611634565b5b50905061165d9190611661565b5090565b5b8082111561167a576000816000905550600101611662565b5090565b600061169161168c84611e7e565b611e4d565b9050828152602081018484840111156116a957600080fd5b6116b4848285612037565b509392505050565b6000813590506116cb816121bc565b92915050565b6000813590506116e0816121d3565b92915050565b6000813590506116f5816121ea565b92915050565b600082601f83011261170c57600080fd5b813561171c84826020860161167e565b91505092915050565b60008135905061173481612201565b92915050565b60006020828403121561174c57600080fd5b600061175a848285016116d1565b91505092915050565b6000806040838503121561177657600080fd5b6000611784858286016116d1565b9250506020611795858286016116bc565b9150509250929050565b6000602082840312156117b157600080fd5b60006117bf848285016116e6565b91505092915050565b600080604083850312156117db57600080fd5b600083013567ffffffffffffffff8111156117f557600080fd5b611801858286016116fb565b925050602083013567ffffffffffffffff81111561181e57600080fd5b61182a858286016116fb565b9150509250929050565b60006020828403121561184657600080fd5b600061185484828501611725565b91505092915050565b6000806040838503121561187057600080fd5b600061187e85828601611725565b925050602061188f858286016116bc565b9150509250929050565b6118a281611fb9565b82525050565b6118b181611fcb565b82525050565b6118c081611fd7565b82525050565b60006118d182611eae565b6118db8185611eb9565b93506118eb818560208601612046565b6118f4816121ab565b840191505092915050565b600061190a82611eae565b6119148185611eca565b9350611924818560208601612046565b80840191505092915050565b600061193d602083611eb9565b91507f537472696e67733a20686578206c656e67746820696e73756666696369656e746000830152602082019050919050565b600061197d600f83611eb9565b91507f496e76616c6964206461746120494400000000000000000000000000000000006000830152602082019050919050565b60006119bd602783611eb9565b91507f4f6e6c792064617461206f776e65722063616e20706572666f726d207468697360008301527f20616374696f6e000000000000000000000000000000000000000000000000006020830152604082019050919050565b6000611a23602483611eb9565b91507f526563697069656e7420616c7265616479206861732061636365737320746f2060008301527f64617461000000000000000000000000000000000000000000000000000000006020830152604082019050919050565b6000611a89601983611eb9565b91507f496e76616c696420726563697069656e742061646472657373000000000000006000830152602082019050919050565b6000611ac9602683611eb9565b91507f526563697069656e7420646f6573206e6f74206861766520616363657373207460008301527f6f206461746100000000000000000000000000000000000000000000000000006020830152604082019050919050565b6000611b2f601783611eca565b91507f416363657373436f6e74726f6c3a206163636f756e74200000000000000000006000830152601782019050919050565b6000611b6f602a83611eb9565b91507f596f7520617265206e6f7420617574686f72697a656420746f2061636365737360008301527f20746869732064617461000000000000000000000000000000000000000000006020830152604082019050919050565b6000611bd5601183611eca565b91507f206973206d697373696e6720726f6c65200000000000000000000000000000006000830152601182019050919050565b6000611c15602f83611eb9565b91507f416363657373436f6e74726f6c3a2063616e206f6e6c792072656e6f756e636560008301527f20726f6c657320666f722073656c6600000000000000000000000000000000006020830152604082019050919050565b611c778161202d565b82525050565b6000611c8882611b22565b9150611c9482856118ff565b9150611c9f82611bc8565b9150611cab82846118ff565b91508190509392505050565b6000602082019050611ccc60008301846118a8565b92915050565b6000602082019050611ce760008301846118b7565b92915050565b60006020820190508181036000830152611d0781846118c6565b905092915050565b60006060820190508181036000830152611d2981866118c6565b9050611d386020830185611c6e565b611d456040830184611899565b949350505050565b60006020820190508181036000830152611d6681611930565b9050919050565b60006020820190508181036000830152611d8681611970565b9050919050565b60006020820190508181036000830152611da6816119b0565b9050919050565b60006020820190508181036000830152611dc681611a16565b9050919050565b60006020820190508181036000830152611de681611a7c565b9050919050565b60006020820190508181036000830152611e0681611abc565b9050919050565b60006020820190508181036000830152611e2681611b62565b9050919050565b60006020820190508181036000830152611e4681611c08565b9050919050565b6000604051905081810181811067ffffffffffffffff82111715611e7457611e7361217c565b5b8060405250919050565b600067ffffffffffffffff821115611e9957611e9861217c565b5b601f19601f8301169050602081019050919050565b600081519050919050565b600082825260208201905092915050565b600081905092915050565b6000611ee08261202d565b9150611eeb8361202d565b9250827fffffffffffffffffffffffffffffffffffffffffffffffffffffffffffffffff03821115611f2057611f1f61211e565b5b828201905092915050565b6000611f368261202d565b9150611f418361202d565b9250817fffffffffffffffffffffffffffffffffffffffffffffffffffffffffffffffff0483118215151615611f7a57611f7961211e565b5b828202905092915050565b6000611f908261202d565b9150611f9b8361202d565b925082821015611fae57611fad61211e565b5b828203905092915050565b6000611fc48261200d565b9050919050565b60008115159050919050565b6000819050919050565b60007fffffffff0000000000000000000000000000000000000000000000000000000082169050919050565b600073ffffffffffffffffffffffffffffffffffffffff82169050919050565b6000819050919050565b82818337600083830152505050565b60005b83811015612064578082015181840152602081019050612049565b83811115612073576000848401525b50505050565b60006120848261202d565b915060008214156120985761209761211e565b5b600182039050919050565b600060028204905060018216806120bb57607f821691505b602082108114156120cf576120ce61214d565b5b50919050565b60006120e08261202d565b91507fffffffffffffffffffffffffffffffffffffffffffffffffffffffffffffffff8214156121135761211261211e565b5b600182019050919050565b7f4e487b7100000000000000000000000000000000000000000000000000000000600052601160045260246000fd5b7f4e487b7100000000000000000000000000000000000000000000000000000000600052602260045260246000fd5b7f4e487b7100000000000000000000000000000000000000000000000000000000600052604160045260246000fd5b6000601f19601f8301169050919050565b6121c581611fb9565b81146121d057600080fd5b50565b6121dc81611fd7565b81146121e757600080fd5b50565b6121f381611fe1565b81146121fe57600080fd5b50565b61220a8161202d565b811461221557600080fd5b5056fea2646970667358221220a4867096706dc288c239d2b8eb29e417b25880812102c72148bac503e34b11ea64736f6c63430008000033",
  "immutableReferences": {},
  "source": "// SPDX-License-Identifier: UNLICENSED\r\npragma solidity ^0.8.0;\r\n\r\nimport \"@openzeppelin/contracts/access/AccessControl.sol\";\r\nimport \"@openzeppelin/contracts/utils/cryptography/ECDSA.sol\";\r\n\r\ncontract DataStorage is AccessControl {\r\n    using ECDSA for bytes32;\r\n\r\n    struct Data {\r\n        string name;\r\n        string contentHash; // Store the IPFS content hash instead of the file content\r\n        uint256 timestamp;\r\n        address owner;\r\n        address[] authorizedUsers;\r\n        bytes32 transactionHash;\r\n    }\r\n\r\n    mapping(uint256 => Data) private dataMap;\r\n    mapping(uint256 => mapping(address => bool)) private authorizedUsersMap;\r\n    uint256 private dataCount;\r\n    event DataShared(uint256 indexed id, address indexed recipient);\r\n    event DataRevoked(uint256 indexed id, address indexed recipient);\r\n    event DataAccessed(uint256 indexed id, address indexed user);\r\n    event DataStored(uint256 indexed id, string name, uint256 timestamp, address owner);\r\n\r\n    modifier onlyOwner(uint256 _id) {\r\n        require(msg.sender == dataMap[_id].owner, \"Only data owner can perform this action\");\r\n        _;\r\n    }\r\n\r\n    modifier onlyAuthorizedUser(uint256 _id) {\r\n        require(authorizedUsersMap[_id][msg.sender], \"You are not authorized to access this data\");\r\n        _;\r\n    }\r\n\r\n     function storeData(string memory _name, string memory _contentHash) public {\r\n     dataCount++;\r\n     Data storage newData = dataMap[dataCount];\r\n     newData.name = _name;\r\n     newData.contentHash = _contentHash;\r\n     newData.timestamp = block.timestamp;\r\n     newData.owner = msg.sender;\r\n     emit DataStored(dataCount, _name, block.timestamp, msg.sender);\r\n    }\r\n\r\n\r\n    function shareData(uint256 _id, address _recipient) public onlyOwner(_id) {\r\n        require(_recipient != address(0), \"Invalid recipient address\");\r\n        require(!authorizedUsersMap[_id][_recipient], \"Recipient already has access to data\");\r\n\r\n        Data storage data = dataMap[_id];\r\n        data.authorizedUsers.push(_recipient);\r\n        authorizedUsersMap[_id][_recipient] = true;\r\n        emit DataShared(_id, _recipient);\r\n    }\r\n\r\n    function revokeDataAccess(uint256 _id, address _recipient) public onlyOwner(_id) {\r\n        require(authorizedUsersMap[_id][_recipient], \"Recipient does not have access to data\");\r\n\r\n        Data storage data = dataMap[_id];\r\n        address[] storage authorizedUsers = data.authorizedUsers;\r\n        for (uint256 i = 0; i < authorizedUsers.length; i++) {\r\n            if (authorizedUsers[i] == _recipient) {\r\n                authorizedUsers[i] = authorizedUsers[authorizedUsers.length - 1];\r\n                authorizedUsers.pop();\r\n                break;\r\n            }\r\n        }\r\n        authorizedUsersMap[_id][_recipient] = false;\r\n        emit DataRevoked(_id, _recipient);\r\n    }\r\n\r\n    function accessData(uint256 _id) public onlyAuthorizedUser(_id) {\r\n        emit DataAccessed(_id, msg.sender);\r\n    }\r\n\r\n    function getData(uint256 _id) public view returns (string memory, uint256, address) {\r\n        require(_id > 0 && _id <= dataCount, \"Invalid data ID\");\r\n        Data storage data = dataMap[_id];\r\n        return (data.name, data.timestamp, data.owner);\r\n    }\r\n\r\n    function getContentHash(uint256 _id) public view onlyAuthorizedUser(_id) returns (string memory) {\r\n        Data storage data = dataMap[_id];\r\n        return data.contentHash;\r\n    }\r\n\r\n    function verifySignature(uint256 _id, bytes memory _signature) internal view returns (address) {\r\n        bytes32 messageHash = keccak256(abi.encodePacked(address(this), _id));\r\n        return messageHash.recover(_signature);\r\n    }\r\n}\r\n",
  "sourcePath": "C:\\Users\\MD 2101\\Desktop\\MY DISERTATION\\proj1\\contracts\\DataStorage.sol",
  "compiler": {
    "name": "solc",
    "version": "0.8.0+commit.c7dfd78e.Emscripten.clang"
  },
  "schemaVersion": "3.4.14",
  "updatedAt": "2023-07-28T10:51:10.604Z",
  "networkType": "ethereum",
  "devdoc": {
    "kind": "dev",
    "methods": {
      "getRoleAdmin(bytes32)": {
        "details": "Returns the admin role that controls `role`. See {grantRole} and {revokeRole}. To change a role's admin, use {_setRoleAdmin}."
      },
      "grantRole(bytes32,address)": {
        "details": "Grants `role` to `account`. If `account` had not been already granted `role`, emits a {RoleGranted} event. Requirements: - the caller must have ``role``'s admin role. May emit a {RoleGranted} event."
      },
      "hasRole(bytes32,address)": {
        "details": "Returns `true` if `account` has been granted `role`."
      },
      "renounceRole(bytes32,address)": {
        "details": "Revokes `role` from the calling account. Roles are often managed via {grantRole} and {revokeRole}: this function's purpose is to provide a mechanism for accounts to lose their privileges if they are compromised (such as when a trusted device is misplaced). If the calling account had been revoked `role`, emits a {RoleRevoked} event. Requirements: - the caller must be `account`. May emit a {RoleRevoked} event."
      },
      "revokeRole(bytes32,address)": {
        "details": "Revokes `role` from `account`. If `account` had been granted `role`, emits a {RoleRevoked} event. Requirements: - the caller must have ``role``'s admin role. May emit a {RoleRevoked} event."
      },
      "supportsInterface(bytes4)": {
        "details": "See {IERC165-supportsInterface}."
      }
    },
    "version": 1
  },
  "userdoc": {
    "kind": "user",
    "methods": {},
    "version": 1
  }
}